{
  "contractName": "Meshwar",
  "abi": [
    {
      "constant": true,
      "inputs": [
        {
          "name": "_user",
          "type": "address"
        }
      ],
      "name": "getRequestDriver",
      "outputs": [
        {
          "name": "usrDriver",
          "type": "address"
        },
        {
          "name": "name",
          "type": "string"
        },
        {
          "name": "isDriver",
          "type": "bool"
        }
      ],
      "payable": false,
      "stateMutability": "view",
      "type": "function"
    },
    {
      "constant": true,
      "inputs": [],
      "name": "getRidesRequest",
      "outputs": [
        {
          "name": "",
          "type": "uint256[]"
        }
      ],
      "payable": false,
      "stateMutability": "view",
      "type": "function"
    },
    {
      "constant": false,
      "inputs": [
        {
          "name": "_name",
          "type": "string"
        },
        {
          "name": "_pickup",
          "type": "string"
        },
        {
          "name": "_destination",
          "type": "string"
        }
      ],
      "name": "requestRide",
      "outputs": [],
      "payable": false,
      "stateMutability": "nonpayable",
      "type": "function"
    },
    {
      "constant": false,
      "inputs": [],
      "name": "kill",
      "outputs": [],
      "payable": false,
      "stateMutability": "nonpayable",
      "type": "function"
    },
    {
      "constant": true,
      "inputs": [
        {
          "name": "",
          "type": "uint256"
        }
      ],
      "name": "rides",
      "outputs": [
        {
          "name": "id",
          "type": "uint256"
        },
        {
          "name": "rider",
          "type": "address"
        },
        {
          "name": "driver",
          "type": "address"
        },
        {
          "name": "name",
          "type": "string"
        },
        {
          "name": "pickup",
          "type": "string"
        },
        {
          "name": "destination",
          "type": "string"
        },
        {
          "name": "start",
          "type": "uint256"
        },
        {
          "name": "end",
          "type": "uint256"
        },
        {
          "name": "price",
          "type": "uint256"
        },
        {
          "name": "startRide",
          "type": "bool"
        },
        {
          "name": "paid",
          "type": "bool"
        }
      ],
      "payable": false,
      "stateMutability": "view",
      "type": "function"
    },
    {
      "constant": true,
      "inputs": [
        {
          "name": "",
          "type": "uint256"
        }
      ],
      "name": "driversAddresses",
      "outputs": [
        {
          "name": "",
          "type": "address"
        }
      ],
      "payable": false,
      "stateMutability": "view",
      "type": "function"
    },
    {
      "constant": false,
      "inputs": [],
      "name": "getOwner",
      "outputs": [
        {
          "name": "xowner",
          "type": "address"
        }
      ],
      "payable": false,
      "stateMutability": "nonpayable",
      "type": "function"
    },
    {
      "constant": false,
      "inputs": [
        {
          "name": "_id",
          "type": "uint256"
        },
        {
          "name": "_end",
          "type": "uint256"
        }
      ],
      "name": "payForRide",
      "outputs": [],
      "payable": true,
      "stateMutability": "payable",
      "type": "function"
    },
    {
      "constant": true,
      "inputs": [],
      "name": "getNumberOfRides",
      "outputs": [
        {
          "name": "",
          "type": "uint256"
        }
      ],
      "payable": false,
      "stateMutability": "view",
      "type": "function"
    },
    {
      "constant": false,
      "inputs": [
        {
          "name": "_id",
          "type": "uint256"
        }
      ],
      "name": "acceptRide",
      "outputs": [],
      "payable": false,
      "stateMutability": "nonpayable",
      "type": "function"
    },
    {
      "constant": false,
      "inputs": [
        {
          "name": "_id",
          "type": "uint256"
        },
        {
          "name": "_start",
          "type": "uint256"
        }
      ],
      "name": "startTrip",
      "outputs": [],
      "payable": false,
      "stateMutability": "nonpayable",
      "type": "function"
    },
    {
      "constant": false,
      "inputs": [
        {
          "name": "_newDriver",
          "type": "address"
        }
      ],
      "name": "becomeDriver",
      "outputs": [],
      "payable": false,
      "stateMutability": "nonpayable",
      "type": "function"
    },
    {
      "constant": false,
      "inputs": [
        {
          "name": "_name",
          "type": "string"
        }
      ],
      "name": "requestDriver",
      "outputs": [],
      "payable": false,
      "stateMutability": "nonpayable",
      "type": "function"
    },
    {
      "anonymous": false,
      "inputs": [
        {
          "indexed": true,
          "name": "_id",
          "type": "uint256"
        },
        {
          "indexed": true,
          "name": "_rider",
          "type": "address"
        },
        {
          "indexed": false,
          "name": "_name",
          "type": "string"
        }
      ],
      "name": "requestRideEvent",
      "type": "event"
    },
    {
      "anonymous": false,
      "inputs": [
        {
          "indexed": true,
          "name": "_id",
          "type": "uint256"
        },
        {
          "indexed": true,
          "name": "_rider",
          "type": "address"
        },
        {
          "indexed": true,
          "name": "_driver",
          "type": "address"
        },
        {
          "indexed": false,
          "name": "_name",
          "type": "string"
        }
      ],
      "name": "acceptRideEvent",
      "type": "event"
    },
    {
      "anonymous": false,
      "inputs": [
        {
          "indexed": true,
          "name": "_id",
          "type": "uint256"
        },
        {
          "indexed": true,
          "name": "_rider",
          "type": "address"
        },
        {
          "indexed": true,
          "name": "_driver",
          "type": "address"
        },
        {
          "indexed": false,
          "name": "_name",
          "type": "string"
        },
        {
          "indexed": false,
          "name": "_start",
          "type": "uint256"
        }
      ],
      "name": "startTripEvent",
      "type": "event"
    },
    {
      "anonymous": false,
      "inputs": [
        {
          "indexed": true,
          "name": "_id",
          "type": "uint256"
        },
        {
          "indexed": true,
          "name": "_rider",
          "type": "address"
        },
        {
          "indexed": true,
          "name": "_driver",
          "type": "address"
        },
        {
          "indexed": false,
          "name": "_name",
          "type": "string"
        },
        {
          "indexed": false,
          "name": "_destination",
          "type": "string"
        },
        {
          "indexed": false,
          "name": "_price",
          "type": "uint256"
        }
      ],
      "name": "payForRideEvent",
      "type": "event"
    }
  ],
  "bytecode": "0x6060604052336000806101000a81548173ffffffffffffffffffffffffffffffffffffffff021916908373ffffffffffffffffffffffffffffffffffffffff160217905550611987806100536000396000f3006060604052600436106100c5576000357c0100000000000000000000000000000000000000000000000000000000900463ffffffff16806310fd7e9b146100ca57806329997411146101ba5780634167b7431461022457806341c0e1b5146103075780635205f1121461031c578063576719441461057f578063893d20e8146105e25780639966e81614610637578063a4b7b86714610658578063c51562cb14610681578063cee96103146106a4578063e4e431fd146106d0578063f62cf40414610709575b600080fd5b34156100d557600080fd5b610101600480803573ffffffffffffffffffffffffffffffffffffffff16906020019091905050610766565b604051808473ffffffffffffffffffffffffffffffffffffffff1673ffffffffffffffffffffffffffffffffffffffff1681526020018060200183151515158152602001828103825284818151815260200191508051906020019080838360005b8381101561017d578082015181840152602081019050610162565b50505050905090810190601f1680156101aa5780820380516001836020036101000a031916815260200191505b5094505050505060405180910390f35b34156101c557600080fd5b6101cd610910565b6040518080602001828103825283818151815260200191508051906020019060200280838360005b838110156102105780820151818401526020810190506101f5565b505050509050019250505060405180910390f35b341561022f57600080fd5b610305600480803590602001908201803590602001908080601f0160208091040260200160405190810160405280939291908181526020018383808284378201915050505050509190803590602001908201803590602001908080601f0160208091040260200160405190810160405280939291908181526020018383808284378201915050505050509190803590602001908201803590602001908080601f01602080910402602001604051908101604052809392919081815260200183838082843782019150505050505091905050610b0f565b005b341561031257600080fd5b61031a610dc9565b005b341561032757600080fd5b61033d6004808035906020019091905050610e5e565b604051808c81526020018b73ffffffffffffffffffffffffffffffffffffffff1673ffffffffffffffffffffffffffffffffffffffff1681526020018a73ffffffffffffffffffffffffffffffffffffffff1673ffffffffffffffffffffffffffffffffffffffff168152602001806020018060200180602001898152602001888152602001878152602001861515151581526020018515151515815260200184810384528c81815460018160011615610100020316600290048152602001915080546001816001161561010002031660029004801561045e5780601f106104335761010080835404028352916020019161045e565b820191906000526020600020905b81548152906001019060200180831161044157829003601f168201915b505084810383528b8181546001816001161561010002031660029004815260200191508054600181600116156101000203166002900480156104e15780601f106104b6576101008083540402835291602001916104e1565b820191906000526020600020905b8154815290600101906020018083116104c457829003601f168201915b505084810382528a8181546001816001161561010002031660029004815260200191508054600181600116156101000203166002900480156105645780601f1061053957610100808354040283529160200191610564565b820191906000526020600020905b81548152906001019060200180831161054757829003601f168201915b50509e50505050505050505050505050505060405180910390f35b341561058a57600080fd5b6105a06004808035906020019091905050610f0f565b604051808273ffffffffffffffffffffffffffffffffffffffff1673ffffffffffffffffffffffffffffffffffffffff16815260200191505060405180910390f35b34156105ed57600080fd5b6105f5610f4e565b604051808273ffffffffffffffffffffffffffffffffffffffff1673ffffffffffffffffffffffffffffffffffffffff16815260200191505060405180910390f35b6106566004808035906020019091908035906020019091905050610f77565b005b341561066357600080fd5b61066b611273565b6040518082815260200191505060405180910390f35b341561068c57600080fd5b6106a2600480803590602001909190505061127d565b005b34156106af57600080fd5b6106ce60048080359060200190919080359060200190919050506113cd565b005b34156106db57600080fd5b610707600480803573ffffffffffffffffffffffffffffffffffffffff16906020019091905050611640565b005b341561071457600080fd5b610764600480803590602001908201803590602001908080601f016020809104026020016040519081016040528093929190818152602001838380828437820191505050505050919050506116fb565b005b6000610770611862565b6000600160008573ffffffffffffffffffffffffffffffffffffffff1673ffffffffffffffffffffffffffffffffffffffff16815260200190815260200160002060000160009054906101000a900473ffffffffffffffffffffffffffffffffffffffff16600160008673ffffffffffffffffffffffffffffffffffffffff1673ffffffffffffffffffffffffffffffffffffffff168152602001908152602001600020600101600160008773ffffffffffffffffffffffffffffffffffffffff1673ffffffffffffffffffffffffffffffffffffffff16815260200190815260200160002060020160009054906101000a900460ff16818054600181600116156101000203166002900480601f0160208091040260200160405190810160405280929190818152602001828054600181600116156101000203166002900480156108fc5780601f106108d1576101008083540402835291602001916108fc565b820191906000526020600020905b8154815290600101906020018083116108df57829003601f168201915b505050505091509250925092509193909250565b610918611876565b610920611876565b60008061092b611876565b600080600454141561095e5760006040518059106109465750595b90808252806020026020018201604052509550610b07565b60045460405180591061096e5750595b9080825280602002602001820160405250945060009350600192505b60045483111515610a945760006003600085815260200190815260200160002060090160016101000a81548160ff021916908315150217905550600015156003600085815260200190815260200160002060090160019054906101000a900460ff1615151480610a46575060006003600085815260200190815260200160002060020160009054906101000a900473ffffffffffffffffffffffffffffffffffffffff1673ffffffffffffffffffffffffffffffffffffffff16145b15610a875760036000848152602001908152602001600020600001548585815181101515610a7057fe5b906020019060200201818152505083806001019450505b828060010193505061098a565b83604051805910610aa25750595b90808252806020026020018201604052509150600090505b83811015610b03578481815181101515610ad057fe5b906020019060200201518282815181101515610ae857fe5b90602001906020020181815250508080600101915050610aba565b8195505b505050505090565b6004600081548092919060010191905055506101606040519081016040528060045481526020013373ffffffffffffffffffffffffffffffffffffffff168152602001600073ffffffffffffffffffffffffffffffffffffffff168152602001848152602001838152602001828152602001600081526020016000815260200160008152602001600015158152602001600015158152506003600060045481526020019081526020016000206000820151816000015560208201518160010160006101000a81548173ffffffffffffffffffffffffffffffffffffffff021916908373ffffffffffffffffffffffffffffffffffffffff16021790555060408201518160020160006101000a81548173ffffffffffffffffffffffffffffffffffffffff021916908373ffffffffffffffffffffffffffffffffffffffff1602179055506060820151816003019080519060200190610c6f92919061188a565b506080820151816004019080519060200190610c8c92919061188a565b5060a0820151816005019080519060200190610ca992919061188a565b5060c0820151816006015560e0820151816007015561010082015181600801556101208201518160090160006101000a81548160ff0219169083151502179055506101408201518160090160016101000a81548160ff0219169083151502179055509050503373ffffffffffffffffffffffffffffffffffffffff166004547f4586056d2ffc9a8d479ac10fc103df487910abf0f112e0f8abcea258b9733bd9856040518080602001828103825283818151815260200191508051906020019080838360005b83811015610d8a578082015181840152602081019050610d6f565b50505050905090810190601f168015610db75780820380516001836020036101000a031916815260200191505b509250505060405180910390a3505050565b6000809054906101000a900473ffffffffffffffffffffffffffffffffffffffff1673ffffffffffffffffffffffffffffffffffffffff163373ffffffffffffffffffffffffffffffffffffffff16141515610e2457600080fd5b6000809054906101000a900473ffffffffffffffffffffffffffffffffffffffff1673ffffffffffffffffffffffffffffffffffffffff16ff5b60036020528060005260406000206000915090508060000154908060010160009054906101000a900473ffffffffffffffffffffffffffffffffffffffff16908060020160009054906101000a900473ffffffffffffffffffffffffffffffffffffffff16908060030190806004019080600501908060060154908060070154908060080154908060090160009054906101000a900460ff16908060090160019054906101000a900460ff1690508b565b600281815481101515610f1e57fe5b90600052602060002090016000915054906101000a900473ffffffffffffffffffffffffffffffffffffffff1681565b60008060009054906101000a900473ffffffffffffffffffffffffffffffffffffffff16905090565b600080600454111515610f8957600080fd5b600083118015610f9b57506004548311155b1515610fa657600080fd5b6003600084815260200190815260200160002090508181600701819055506402540be4008160060154826007015403028160080181905550338160010160006101000a81548173ffffffffffffffffffffffffffffffffffffffff021916908373ffffffffffffffffffffffffffffffffffffffff1602179055508060020160009054906101000a900473ffffffffffffffffffffffffffffffffffffffff1673ffffffffffffffffffffffffffffffffffffffff166108fc349081150290604051600060405180830381858888f19350505050151561108557600080fd5b60018160090160016101000a81548160ff0219169083151502179055508060020160009054906101000a900473ffffffffffffffffffffffffffffffffffffffff1673ffffffffffffffffffffffffffffffffffffffff168160010160009054906101000a900473ffffffffffffffffffffffffffffffffffffffff1673ffffffffffffffffffffffffffffffffffffffff16847f41e1be58982c736a77b0b4dbbdcf0d07c3b1426303b035b26f1260780952cfde846003018560050186600801546040518080602001806020018481526020018381038352868181546001816001161561010002031660029004815260200191508054600181600116156101000203166002900480156111da5780601f106111af576101008083540402835291602001916111da565b820191906000526020600020905b8154815290600101906020018083116111bd57829003601f168201915b505083810382528581815460018160011615610100020316600290048152602001915080546001816001161561010002031660029004801561125d5780601f106112325761010080835404028352916020019161125d565b820191906000526020600020905b81548152906001019060200180831161124057829003601f168201915b50509550505050505060405180910390a4505050565b6000600454905090565b6000808160090160016101000a81548160ff02191690831515021790555060006004541115156112ac57600080fd5b6000821180156112be57506004548211155b15156112c957600080fd5b60036000838152602001908152602001600020905060008160020160009054906101000a900473ffffffffffffffffffffffffffffffffffffffff1673ffffffffffffffffffffffffffffffffffffffff1614151561132757600080fd5b3373ffffffffffffffffffffffffffffffffffffffff168160010160009054906101000a900473ffffffffffffffffffffffffffffffffffffffff1673ffffffffffffffffffffffffffffffffffffffff161415151561138657600080fd5b338160020160006101000a81548173ffffffffffffffffffffffffffffffffffffffff021916908373ffffffffffffffffffffffffffffffffffffffff1602179055505050565b6000808160090160016101000a81548160ff02191690831515021790555060006004541115156113fc57600080fd5b60008311801561140e57506004548311155b151561141957600080fd5b6003600084815260200190815260200160002090508181600601819055503373ffffffffffffffffffffffffffffffffffffffff168160020160009054906101000a900473ffffffffffffffffffffffffffffffffffffffff1673ffffffffffffffffffffffffffffffffffffffff1614151561149557600080fd5b60008160010160009054906101000a900473ffffffffffffffffffffffffffffffffffffffff1673ffffffffffffffffffffffffffffffffffffffff16141515156114df57600080fd5b60018160090160006101000a81548160ff0219169083151502179055508060020160009054906101000a900473ffffffffffffffffffffffffffffffffffffffff1673ffffffffffffffffffffffffffffffffffffffff168160010160009054906101000a900473ffffffffffffffffffffffffffffffffffffffff1673ffffffffffffffffffffffffffffffffffffffff16847f1111f013e225aeeede364a7deb5f7cc1b5053fb4e8da1ef8550bfe668f4c0c9d846003018560060154604051808060200183815260200182810382528481815460018160011615610100020316600290048152602001915080546001816001161561010002031660029004801561162c5780601f106116015761010080835404028352916020019161162c565b820191906000526020600020905b81548152906001019060200180831161160f57829003601f168201915b5050935050505060405180910390a4505050565b60011515600160008373ffffffffffffffffffffffffffffffffffffffff1673ffffffffffffffffffffffffffffffffffffffff16815260200190815260200160002060020160009054906101000a900460ff1615151415156116f85760018060008373ffffffffffffffffffffffffffffffffffffffff1673ffffffffffffffffffffffffffffffffffffffff16815260200190815260200160002060020160006101000a81548160ff0219169083151502179055505b50565b60003390506060604051908101604052803373ffffffffffffffffffffffffffffffffffffffff16815260200183815260200160001515815250600160008373ffffffffffffffffffffffffffffffffffffffff1673ffffffffffffffffffffffffffffffffffffffff16815260200190815260200160002060008201518160000160006101000a81548173ffffffffffffffffffffffffffffffffffffffff021916908373ffffffffffffffffffffffffffffffffffffffff16021790555060208201518160010190805190602001906117d792919061188a565b5060408201518160020160006101000a81548160ff0219169083151502179055509050506002805480600101828161180f919061190a565b9160005260206000209001600083909190916101000a81548173ffffffffffffffffffffffffffffffffffffffff021916908373ffffffffffffffffffffffffffffffffffffffff160217905550505050565b602060405190810160405280600081525090565b602060405190810160405280600081525090565b828054600181600116156101000203166002900490600052602060002090601f016020900481019282601f106118cb57805160ff19168380011785556118f9565b828001600101855582156118f9579182015b828111156118f85782518255916020019190600101906118dd565b5b5090506119069190611936565b5090565b815481835581811511611931578183600052602060002091820191016119309190611936565b5b505050565b61195891905b8082111561195457600081600090555060010161193c565b5090565b905600a165627a7a723058209f1928f04073d1e2d331da5f354761c8fff3f9433e6a0368ba14be2f8badc0df0029",
  "source": "pragma solidity ^0.4.18;\n\nimport \"./Owner.sol\";\nimport \"./Users.sol\";\n\ncontract Meshwar is Users {\n  // Custom types\n  struct Ride {\n    uint id;\n    address rider;\n    address driver;\n    string name;\n    string pickup;\n    string destination;\n    uint start;\n    uint end;\n    uint256 price;\n    bool startRide;\n    bool paid;\n  }\n\n  // State variables\n  mapping(uint => Ride) public rides;\n  uint rideCounter;\n\n  // Events\n  event requestRideEvent (\n    uint indexed _id,\n    address indexed _rider,\n    string _name\n    );\n  event acceptRideEvent (\n    uint indexed _id,\n    address indexed _rider,\n    address indexed _driver,\n    string _name\n    );\n    event startTripEvent (\n      uint indexed _id,\n      address indexed _rider,\n      address indexed _driver,\n      string _name,\n      uint _start\n\n      );\n  event payForRideEvent (\n    uint indexed _id,\n    address indexed _rider,\n    address indexed _driver,\n    string _name,\n    string _destination,\n    uint256 _price\n    );\n\n  // sell an ride\n  function requestRide(string _name, string _pickup, string _destination) public {\n    // a new ride\n    rideCounter++;\n\n    // store this ride\n    rides[rideCounter] = Ride(\n         rideCounter,\n         msg.sender,\n         0x0,\n         _name,\n         _pickup,\n         _destination,\n         0,\n         0,\n         0,\n         false,\n         false\n    );\n\n    // trigger the event\n    requestRideEvent(rideCounter, msg.sender, _name);\n  }\n\n\n  // fetch the number of rides in the contract\n  function getNumberOfRides() public constant returns (uint) {\n    return rideCounter;\n  }\n\n  // fetch and returns all ride IDs available for sale\n  /* function getRidesRequest() onlyRiderAndDriver() public constant returns (uint[]) { */\n  function getRidesRequest() public constant returns (uint[]) {\n    // we check whether there is at least one ride\n    if(rideCounter == 0) {\n      return new uint[](0);\n    }\n\n    // prepare intermediary array\n    uint[] memory rideIds = new uint[](rideCounter);\n\n    uint numberOfRidesAvailable = 0;\n    // iterate over rides\n    for (uint i = 1; i <= rideCounter; i++) {\n      rides[i].paid = false;\n      // keep only the ID of rides not paid yet\n       if (rides[i].paid == false || rides[i].driver == 0x0) {\n        rideIds[numberOfRidesAvailable] = rides[i].id;\n        numberOfRidesAvailable++;\n      }\n    }\n\n    // copy the rideIds array into the smaller forRide array\n    uint[] memory forRide = new uint[](numberOfRidesAvailable);\n    for (uint j = 0; j < numberOfRidesAvailable; j++) {\n      forRide[j] = rideIds[j];\n    }\n    return (forRide);\n  }\n\n\n  //acceptRide\n  function acceptRide(uint _id) public {\n    //set paid to false, since the drvier accepted the ride & did not get paid\n    ride.paid = false;\n    //we check whether there is a at least one ride\n    require(rideCounter > 0);\n\n    //we check whether the ride exists\n    require(_id > 0 && _id <= rideCounter);\n\n    //we retrieve the rideRequest\n    Ride storage ride = rides[_id];\n\n    //we check whether the ride has not already been accepted by a driver\n    require(ride.driver == 0x0);\n\n    //we don't allow the rider to accept his/her own rideRequest\n    require(ride.rider != msg.sender);\n\n    // keep driver's information\n    ride.driver = msg.sender;\n\n\n    // trigger the event\n  //  acceptRideEvent(_id, ride.rider, ride.driver, ride.name);\n\n  }\n\n  // startTrip\n  function startTrip(uint _id, uint _start) public {\n\n    //require false, since the drvier accepted the ride & did not get paid\n    ride.paid = false;\n    // we check whether there is at least one ride\n    require(rideCounter > 0);\n\n    // we check whether the ride exists\n    require(_id > 0 && _id <= rideCounter);\n\n    // we retrieve the rideRequest\n    Ride storage ride = rides[_id];\n\n    ride.start = _start;\n\n    // we don't allow the driver to start his/her own trip\n    require(ride.driver == msg.sender);\n\n    // we check whether there is an ride\n    require(ride.rider != 0x0);\n\n    //set the start trip to false\n    ride.startRide = true;\n    startTripEvent(_id, ride.rider, ride.driver, ride.name, ride.start);\n  }\n\n  // payForRide\n  function payForRide(uint _id, uint _end) payable public {\n\n    // we check whether there is at least one ride\n    require(rideCounter > 0);\n\n    // we check whether the ride exists\n    require(_id > 0 && _id <= rideCounter);\n\n    // we retrieve the ride\n    Ride storage ride = rides[_id];\n    ride.end = _end;\n    ride.price = (((ride.end - ride.start))*10000000000);\n\n    // keep rider's information\n    ride.rider = msg.sender;\n\n    // the rider can buy the Ride\n    ride.driver.transfer(msg.value);\n\n    /* ride.driver.transfer(msg.value); */\n\n    //bool returns true to hide the button in the UI\n    ride.paid = true;\n\n    // trigger the event\n    payForRideEvent(_id, ride.rider, ride.driver, ride.name, ride.destination, ride.price);\n  }\n\n  // kill the smart contract\n  function kill() onlyByOwner {\n    selfdestruct(owner);\n  }\n\n}\n",
  "sourcePath": "/Users/abdullahalghofaili/Meshwar/contracts/Meshwar.sol",
  "compiler": {
    "name": "solc",
    "version": "0.4.18+commit.9cf6e910.Emscripten.clang"
  },
  "schemaVersion": "1.0.1",
  "updatedAt": "2018-06-04T09:03:39.116Z"
}