{
  "contractName": "Owner",
  "abi": [
    {
      "constant": false,
      "inputs": [],
      "name": "getOwner",
      "outputs": [
        {
          "name": "xowner",
          "type": "address"
        }
      ],
      "payable": false,
      "stateMutability": "nonpayable",
      "type": "function"
    },
    {
      "inputs": [],
      "payable": false,
      "stateMutability": "nonpayable",
      "type": "constructor"
    }
  ],
  "bytecode": "0x6060604052341561000f57600080fd5b336000806101000a81548173ffffffffffffffffffffffffffffffffffffffff021916908373ffffffffffffffffffffffffffffffffffffffff16021790555060eb8061005d6000396000f300606060405260043610603f576000357c0100000000000000000000000000000000000000000000000000000000900463ffffffff168063893d20e8146044575b600080fd5b3415604e57600080fd5b60546096565b604051808273ffffffffffffffffffffffffffffffffffffffff1673ffffffffffffffffffffffffffffffffffffffff16815260200191505060405180910390f35b60008060009054906101000a900473ffffffffffffffffffffffffffffffffffffffff169050905600a165627a7a723058200d1afc6f7b2d88e8f49f401cad783ee7e06851464eaf83da9ca1c91a7cb80a0a0029",
  "source": "pragma solidity ^0.4.11;\n\n\ncontract Owner {\n  // State variable\n  address owner;\n\n  // Modifiers\n  modifier onlyByOwner() {\n    require(msg.sender == owner);\n    _;\n  }\n  // constructor\n  function Owner() {\n    owner = msg.sender;\n  }\n  function getOwner() returns (address xowner){\n    return owner;\n  }\n}\n",
  "sourcePath": "/Users/abdullahalghofaili/Meshwar/contracts/Owner.sol",
  "compiler": {
    "name": "solc",
    "version": "0.4.18+commit.9cf6e910.Emscripten.clang"
  },
  "schemaVersion": "1.0.1",
  "updatedAt": "2018-06-07T11:31:25.288Z"
}