{
  "contractName": "Users",
  "abi": [
    {
      "constant": true,
      "inputs": [
        {
          "name": "_user",
          "type": "address"
        }
      ],
      "name": "getRequestDriver",
      "outputs": [
        {
          "name": "usrDriver",
          "type": "address"
        },
        {
          "name": "name",
          "type": "string"
        },
        {
          "name": "isDriver",
          "type": "bool"
        }
      ],
      "payable": false,
      "stateMutability": "view",
      "type": "function"
    },
    {
      "constant": true,
      "inputs": [
        {
          "name": "",
          "type": "uint256"
        }
      ],
      "name": "driversAddresses",
      "outputs": [
        {
          "name": "",
          "type": "address"
        }
      ],
      "payable": false,
      "stateMutability": "view",
      "type": "function"
    },
    {
      "constant": false,
      "inputs": [],
      "name": "getOwner",
      "outputs": [
        {
          "name": "xowner",
          "type": "address"
        }
      ],
      "payable": false,
      "stateMutability": "nonpayable",
      "type": "function"
    },
    {
      "constant": false,
      "inputs": [
        {
          "name": "_newDriver",
          "type": "address"
        }
      ],
      "name": "becomeDriver",
      "outputs": [],
      "payable": false,
      "stateMutability": "nonpayable",
      "type": "function"
    },
    {
      "constant": false,
      "inputs": [
        {
          "name": "_name",
          "type": "string"
        }
      ],
      "name": "requestDriver",
      "outputs": [],
      "payable": false,
      "stateMutability": "nonpayable",
      "type": "function"
    }
  ],
  "bytecode": "0x6060604052336000806101000a81548173ffffffffffffffffffffffffffffffffffffffff021916908373ffffffffffffffffffffffffffffffffffffffff1602179055506107f5806100536000396000f30060606040526004361061006d576000357c0100000000000000000000000000000000000000000000000000000000900463ffffffff16806310fd7e9b146100725780635767194414610162578063893d20e8146101c5578063e4e431fd1461021a578063f62cf40414610253575b600080fd5b341561007d57600080fd5b6100a9600480803573ffffffffffffffffffffffffffffffffffffffff169060200190919050506102b0565b604051808473ffffffffffffffffffffffffffffffffffffffff1673ffffffffffffffffffffffffffffffffffffffff1681526020018060200183151515158152602001828103825284818151815260200191508051906020019080838360005b8381101561012557808201518184015260208101905061010a565b50505050905090810190601f1680156101525780820380516001836020036101000a031916815260200191505b5094505050505060405180910390f35b341561016d57600080fd5b610183600480803590602001909190505061045a565b604051808273ffffffffffffffffffffffffffffffffffffffff1673ffffffffffffffffffffffffffffffffffffffff16815260200191505060405180910390f35b34156101d057600080fd5b6101d8610499565b604051808273ffffffffffffffffffffffffffffffffffffffff1673ffffffffffffffffffffffffffffffffffffffff16815260200191505060405180910390f35b341561022557600080fd5b610251600480803573ffffffffffffffffffffffffffffffffffffffff169060200190919050506104c2565b005b341561025e57600080fd5b6102ae600480803590602001908201803590602001908080601f0160208091040260200160405190810160405280939291908181526020018383808284378201915050505050509190505061057d565b005b60006102ba6106e4565b6000600160008573ffffffffffffffffffffffffffffffffffffffff1673ffffffffffffffffffffffffffffffffffffffff16815260200190815260200160002060000160009054906101000a900473ffffffffffffffffffffffffffffffffffffffff16600160008673ffffffffffffffffffffffffffffffffffffffff1673ffffffffffffffffffffffffffffffffffffffff168152602001908152602001600020600101600160008773ffffffffffffffffffffffffffffffffffffffff1673ffffffffffffffffffffffffffffffffffffffff16815260200190815260200160002060020160009054906101000a900460ff16818054600181600116156101000203166002900480601f0160208091040260200160405190810160405280929190818152602001828054600181600116156101000203166002900480156104465780601f1061041b57610100808354040283529160200191610446565b820191906000526020600020905b81548152906001019060200180831161042957829003601f168201915b505050505091509250925092509193909250565b60028181548110151561046957fe5b90600052602060002090016000915054906101000a900473ffffffffffffffffffffffffffffffffffffffff1681565b60008060009054906101000a900473ffffffffffffffffffffffffffffffffffffffff16905090565b60011515600160008373ffffffffffffffffffffffffffffffffffffffff1673ffffffffffffffffffffffffffffffffffffffff16815260200190815260200160002060020160009054906101000a900460ff16151514151561057a5760018060008373ffffffffffffffffffffffffffffffffffffffff1673ffffffffffffffffffffffffffffffffffffffff16815260200190815260200160002060020160006101000a81548160ff0219169083151502179055505b50565b60003390506060604051908101604052803373ffffffffffffffffffffffffffffffffffffffff16815260200183815260200160001515815250600160008373ffffffffffffffffffffffffffffffffffffffff1673ffffffffffffffffffffffffffffffffffffffff16815260200190815260200160002060008201518160000160006101000a81548173ffffffffffffffffffffffffffffffffffffffff021916908373ffffffffffffffffffffffffffffffffffffffff16021790555060208201518160010190805190602001906106599291906106f8565b5060408201518160020160006101000a81548160ff021916908315150217905550905050600280548060010182816106919190610778565b9160005260206000209001600083909190916101000a81548173ffffffffffffffffffffffffffffffffffffffff021916908373ffffffffffffffffffffffffffffffffffffffff160217905550505050565b602060405190810160405280600081525090565b828054600181600116156101000203166002900490600052602060002090601f016020900481019282601f1061073957805160ff1916838001178555610767565b82800160010185558215610767579182015b8281111561076657825182559160200191906001019061074b565b5b50905061077491906107a4565b5090565b81548183558181151161079f5781836000526020600020918201910161079e91906107a4565b5b505050565b6107c691905b808211156107c25760008160009055506001016107aa565b5090565b905600a165627a7a723058203e1931df196ba1ae5c400cb8a7ce1c28723ce251e6ce0b2b94d1c9fa7ce22c0d0029",
  "source": "pragma solidity ^0.4.11;\n\nimport \"./Owner.sol\";\n\ncontract Users is Owner{\n\n  struct User {\n    /* uint usrId; */\n    address usrDriver;\n    string name;\n    bool isDriver;\n  }\n\n  mapping(address => User) drivers;\n  address[] public driversAddresses;\n\n  modifier onlyByDriver(){\n    if(drivers[msg.sender].isDriver == true){\n      _;\n    } else{\n      revert();\n    }\n  }\n  // request to become a Driver\n  function requestDriver(string _name) public {\n    address _user = msg.sender;\n\n    drivers[_user] = User(msg.sender,_name, false);\n    driversAddresses.push(_user);\n  }\n\n  //become driver\n//  function becomeDriver (address _newDriver) onlyByOwner() public{\n  function becomeDriver (address _newDriver) public{\n    if (drivers[_newDriver].isDriver != true){\n      drivers[_newDriver].isDriver = true;\n    }\n  }\n  function getRequestDriver(address _user) public constant returns(address usrDriver, string name, bool isDriver ){\n    return(\n      drivers[_user].usrDriver,\n      drivers[_user].name,\n      drivers[_user].isDriver\n      );\n    }\n\n\n}\n",
  "sourcePath": "/Users/abdullahalghofaili/Meshwar/contracts/Users.sol",
  "compiler": {
    "name": "solc",
    "version": "0.4.18+commit.9cf6e910.Emscripten.clang"
  },
  "schemaVersion": "1.0.1",
  "updatedAt": "2018-06-07T11:31:25.303Z"
}